{
  "contractName": "Coin",
  "abi": [
    {
      "inputs": [],
      "stateMutability": "nonpayable",
      "type": "constructor"
    },
    {
      "inputs": [
        {
          "internalType": "uint256",
          "name": "requested",
          "type": "uint256"
        },
        {
          "internalType": "uint256",
          "name": "available",
          "type": "uint256"
        }
      ],
      "name": "InsufficientBlance",
      "type": "error"
    },
    {
      "anonymous": false,
      "inputs": [
        {
          "indexed": false,
          "internalType": "address",
          "name": "from",
          "type": "address"
        },
        {
          "indexed": false,
          "internalType": "address",
          "name": "to",
          "type": "address"
        },
        {
          "indexed": false,
          "internalType": "uint256",
          "name": "amount",
          "type": "uint256"
        }
      ],
      "name": "Sent",
      "type": "event"
    },
    {
      "inputs": [],
      "name": "minter",
      "outputs": [
        {
          "internalType": "address",
          "name": "",
          "type": "address"
        }
      ],
      "stateMutability": "view",
      "type": "function",
      "constant": true
    },
    {
      "inputs": [
        {
          "internalType": "address",
          "name": "receiver",
          "type": "address"
        },
        {
          "internalType": "uint256",
          "name": "amount",
          "type": "uint256"
        }
      ],
      "name": "mint",
      "outputs": [],
      "stateMutability": "nonpayable",
      "type": "function"
    },
    {
      "inputs": [
        {
          "internalType": "address",
          "name": "receiver",
          "type": "address"
        },
        {
          "internalType": "uint256",
          "name": "amount",
          "type": "uint256"
        }
      ],
      "name": "send",
      "outputs": [],
      "stateMutability": "nonpayable",
      "type": "function"
    }
  ],
  "bytecode": "0x608060405234801561001057600080fd5b50336000806101000a81548173ffffffffffffffffffffffffffffffffffffffff021916908373ffffffffffffffffffffffffffffffffffffffff160217905550610583806100606000396000f3fe608060405234801561001057600080fd5b50600436106100415760003560e01c8063075461721461004657806340c10f1914610064578063d0679d3414610080575b600080fd5b61004e61009c565b60405161005b91906103aa565b60405180910390f35b61007e6004803603810190610079919061034c565b6100c0565b005b61009a6004803603810190610095919061034c565b610172565b005b60008054906101000a900473ffffffffffffffffffffffffffffffffffffffff1681565b60008054906101000a900473ffffffffffffffffffffffffffffffffffffffff1673ffffffffffffffffffffffffffffffffffffffff163373ffffffffffffffffffffffffffffffffffffffff161461011857600080fd5b80600160008473ffffffffffffffffffffffffffffffffffffffff1673ffffffffffffffffffffffffffffffffffffffff16815260200190815260200160002060008282546101679190610425565b925050819055505050565b600160003373ffffffffffffffffffffffffffffffffffffffff1673ffffffffffffffffffffffffffffffffffffffff168152602001908152602001600020548111156102375780600160003373ffffffffffffffffffffffffffffffffffffffff1673ffffffffffffffffffffffffffffffffffffffff168152602001908152602001600020546040517f3f035e9800000000000000000000000000000000000000000000000000000000815260040161022e9291906103fc565b60405180910390fd5b80600160003373ffffffffffffffffffffffffffffffffffffffff1673ffffffffffffffffffffffffffffffffffffffff1681526020019081526020016000206000828254610286919061047b565b9250508190555080600160008473ffffffffffffffffffffffffffffffffffffffff1673ffffffffffffffffffffffffffffffffffffffff16815260200190815260200160002060008282546102dc9190610425565b925050819055507f3990db2d31862302a685e8086b5755072a6e2b5b780af1ee81ece35ee3cd3345338383604051610316939291906103c5565b60405180910390a15050565b6000813590506103318161051f565b92915050565b60008135905061034681610536565b92915050565b600080604083850312156103635761036261051a565b5b600061037185828601610322565b925050602061038285828601610337565b9150509250929050565b610395816104af565b82525050565b6103a4816104e1565b82525050565b60006020820190506103bf600083018461038c565b92915050565b60006060820190506103da600083018661038c565b6103e7602083018561038c565b6103f4604083018461039b565b949350505050565b6000604082019050610411600083018561039b565b61041e602083018461039b565b9392505050565b6000610430826104e1565b915061043b836104e1565b9250827fffffffffffffffffffffffffffffffffffffffffffffffffffffffffffffffff038211156104705761046f6104eb565b5b828201905092915050565b6000610486826104e1565b9150610491836104e1565b9250828210156104a4576104a36104eb565b5b828203905092915050565b60006104ba826104c1565b9050919050565b600073ffffffffffffffffffffffffffffffffffffffff82169050919050565b6000819050919050565b7f4e487b7100000000000000000000000000000000000000000000000000000000600052601160045260246000fd5b600080fd5b610528816104af565b811461053357600080fd5b50565b61053f816104e1565b811461054a57600080fd5b5056fea264697066735822122048a7dcc2f9a659dcac83a4d565ee75138734421c6b3cfcacd53ad4f518e5b09464736f6c63430008050033",
  "immutableReferences": {},
  "source": "// SPDX-License-Identifier: MIT\npragma solidity ^0.8.5;\n\ncontract Coin {\n  address public minter;\n  mapping( address => uint ) balances;\n\n  event Sent(address from, address to, uint amount);\n  \n  constructor() {\n    minter = msg.sender;\n  }\n\n  function mint(address receiver, uint amount) public {\n    require(msg.sender == minter);\n    balances[receiver] += amount;\n  }\n\n  error InsufficientBlance(uint requested, uint available);\n\n  function send(address receiver, uint amount) public {\n    if( amount > balances[msg.sender]) {\n      revert InsufficientBlance({\n        requested: amount,\n        available: balances[msg.sender]\n      });\n    }\n    balances[msg.sender] -= amount;\n    balances[receiver] += amount;\n    emit Sent(msg.sender, receiver, amount);  \n  } \n}\n",
  "sourcePath": "D:/Desktop/Workspace/Projects/solidity/METoken/contracts/Coin.sol",
  "compiler": {
    "name": "solc",
    "version": "0.8.5+commit.a4f2e591.Emscripten.clang"
  },
  "schemaVersion": "3.4.1",
  "updatedAt": "2021-07-01T15:01:51.741Z",
  "networkType": "ethereum",
  "devdoc": {
    "kind": "dev",
    "methods": {},
    "version": 1
  },
  "userdoc": {
    "kind": "user",
    "methods": {},
    "version": 1
  }
}