{
  "contractName": "Coin",
  "abi": [
    {
      "inputs": [],
      "stateMutability": "nonpayable",
      "type": "constructor"
    },
    {
      "inputs": [
        {
          "internalType": "uint256",
          "name": "requested",
          "type": "uint256"
        },
        {
          "internalType": "uint256",
          "name": "available",
          "type": "uint256"
        }
      ],
      "name": "InsufficientBlance",
      "type": "error"
    },
    {
      "anonymous": false,
      "inputs": [
        {
          "indexed": false,
          "internalType": "address",
          "name": "from",
          "type": "address"
        },
        {
          "indexed": false,
          "internalType": "address",
          "name": "to",
          "type": "address"
        },
        {
          "indexed": false,
          "internalType": "uint256",
          "name": "amount",
          "type": "uint256"
        }
      ],
      "name": "Sent",
      "type": "event"
    },
    {
      "inputs": [
        {
          "internalType": "address",
          "name": "",
          "type": "address"
        }
      ],
      "name": "balances",
      "outputs": [
        {
          "internalType": "uint256",
          "name": "",
          "type": "uint256"
        }
      ],
      "stateMutability": "view",
      "type": "function"
    },
    {
      "inputs": [],
      "name": "minter",
      "outputs": [
        {
          "internalType": "address",
          "name": "",
          "type": "address"
        }
      ],
      "stateMutability": "view",
      "type": "function"
    },
    {
      "inputs": [
        {
          "internalType": "address",
          "name": "receiver",
          "type": "address"
        },
        {
          "internalType": "uint256",
          "name": "amount",
          "type": "uint256"
        }
      ],
      "name": "mint",
      "outputs": [],
      "stateMutability": "nonpayable",
      "type": "function"
    },
    {
      "inputs": [
        {
          "internalType": "address",
          "name": "receiver",
          "type": "address"
        },
        {
          "internalType": "uint256",
          "name": "amount",
          "type": "uint256"
        }
      ],
      "name": "send",
      "outputs": [],
      "stateMutability": "nonpayable",
      "type": "function"
    },
    {
      "inputs": [
        {
          "internalType": "address",
          "name": "addr",
          "type": "address"
        }
      ],
      "name": "getBalance",
      "outputs": [
        {
          "internalType": "uint256",
          "name": "",
          "type": "uint256"
        }
      ],
      "stateMutability": "view",
      "type": "function"
    }
  ],
  "bytecode": "0x608060405234801561001057600080fd5b50336000806101000a81548173ffffffffffffffffffffffffffffffffffffffff021916908373ffffffffffffffffffffffffffffffffffffffff1602179055506106a2806100606000396000f3fe608060405234801561001057600080fd5b50600436106100575760003560e01c8063075461721461005c57806327e235e31461007a57806340c10f19146100aa578063d0679d34146100c6578063f8b2cb4f146100e2575b600080fd5b610064610112565b60405161007191906104ae565b60405180910390f35b610094600480360381019061008f9190610423565b610136565b6040516100a19190610500565b60405180910390f35b6100c460048036038101906100bf9190610450565b61014e565b005b6100e060048036038101906100db9190610450565b610200565b005b6100fc60048036038101906100f79190610423565b6103b0565b6040516101099190610500565b60405180910390f35b60008054906101000a900473ffffffffffffffffffffffffffffffffffffffff1681565b60016020528060005260406000206000915090505481565b60008054906101000a900473ffffffffffffffffffffffffffffffffffffffff1673ffffffffffffffffffffffffffffffffffffffff163373ffffffffffffffffffffffffffffffffffffffff16146101a657600080fd5b80600160008473ffffffffffffffffffffffffffffffffffffffff1673ffffffffffffffffffffffffffffffffffffffff16815260200190815260200160002060008282546101f59190610544565b925050819055505050565b600160003373ffffffffffffffffffffffffffffffffffffffff1673ffffffffffffffffffffffffffffffffffffffff168152602001908152602001600020548111156102c55780600160003373ffffffffffffffffffffffffffffffffffffffff1673ffffffffffffffffffffffffffffffffffffffff168152602001908152602001600020546040517f3f035e980000000000000000000000000000000000000000000000000000000081526004016102bc92919061051b565b60405180910390fd5b80600160003373ffffffffffffffffffffffffffffffffffffffff1673ffffffffffffffffffffffffffffffffffffffff1681526020019081526020016000206000828254610314919061059a565b9250508190555080600160008473ffffffffffffffffffffffffffffffffffffffff1673ffffffffffffffffffffffffffffffffffffffff168152602001908152602001600020600082825461036a9190610544565b925050819055507f3990db2d31862302a685e8086b5755072a6e2b5b780af1ee81ece35ee3cd33453383836040516103a4939291906104c9565b60405180910390a15050565b6000600160008373ffffffffffffffffffffffffffffffffffffffff1673ffffffffffffffffffffffffffffffffffffffff168152602001908152602001600020549050919050565b6000813590506104088161063e565b92915050565b60008135905061041d81610655565b92915050565b60006020828403121561043957610438610639565b5b6000610447848285016103f9565b91505092915050565b6000806040838503121561046757610466610639565b5b6000610475858286016103f9565b92505060206104868582860161040e565b9150509250929050565b610499816105ce565b82525050565b6104a881610600565b82525050565b60006020820190506104c36000830184610490565b92915050565b60006060820190506104de6000830186610490565b6104eb6020830185610490565b6104f8604083018461049f565b949350505050565b6000602082019050610515600083018461049f565b92915050565b6000604082019050610530600083018561049f565b61053d602083018461049f565b9392505050565b600061054f82610600565b915061055a83610600565b9250827fffffffffffffffffffffffffffffffffffffffffffffffffffffffffffffffff0382111561058f5761058e61060a565b5b828201905092915050565b60006105a582610600565b91506105b083610600565b9250828210156105c3576105c261060a565b5b828203905092915050565b60006105d9826105e0565b9050919050565b600073ffffffffffffffffffffffffffffffffffffffff82169050919050565b6000819050919050565b7f4e487b7100000000000000000000000000000000000000000000000000000000600052601160045260246000fd5b600080fd5b610647816105ce565b811461065257600080fd5b50565b61065e81610600565b811461066957600080fd5b5056fea2646970667358221220de9f69fd58c727b2781598656a69eca743a3ed9785e596efd98be5633b3da3da64736f6c63430008050033",
  "immutableReferences": {},
  "source": "// SPDX-License-Identifier: MIT\r\npragma solidity ^0.8.5;\r\n\r\ncontract Coin {\r\n  address public minter;\r\n  mapping( address => uint ) public balances;\r\n\r\n  event Sent(address from, address to, uint amount);\r\n  \r\n  constructor() {\r\n    minter = msg.sender;\r\n  }\r\n\r\n  function mint(address receiver, uint amount) public {\r\n    require(msg.sender == minter);\r\n    balances[receiver] += amount;\r\n  }\r\n\r\n  error InsufficientBlance(uint requested, uint available);\r\n\r\n  function send(address receiver, uint amount) public {\r\n    if( amount > balances[msg.sender]) {\r\n      revert InsufficientBlance({\r\n        requested: amount,\r\n        available: balances[msg.sender]\r\n      });\r\n    }\r\n    balances[msg.sender] -= amount;\r\n    balances[receiver] += amount;\r\n    emit Sent(msg.sender, receiver, amount);  \r\n  } \r\n\r\n  function getBalance(address addr) public view returns (uint) {\r\n    return balances[addr];\r\n  }\r\n}\r\n",
  "sourcePath": "D:/Desktop/Workspace/Projects/solidity/METoken/contracts/Coin.sol",
  "compiler": {
    "name": "solc",
    "version": "0.8.5+commit.a4f2e591.Emscripten.clang"
  },
  "schemaVersion": "3.4.1",
  "updatedAt": "2021-07-04T17:05:45.691Z",
  "devdoc": {
    "kind": "dev",
    "methods": {},
    "version": 1
  },
  "userdoc": {
    "kind": "user",
    "methods": {},
    "version": 1
  }
}