{
  "contractName": "Coin",
  "abi": [
    {
      "inputs": [],
      "stateMutability": "nonpayable",
      "type": "constructor"
    },
    {
      "inputs": [
        {
          "internalType": "uint256",
          "name": "requested",
          "type": "uint256"
        },
        {
          "internalType": "uint256",
          "name": "available",
          "type": "uint256"
        }
      ],
      "name": "InsufficientBlance",
      "type": "error"
    },
    {
      "anonymous": false,
      "inputs": [
        {
          "indexed": false,
          "internalType": "address",
          "name": "from",
          "type": "address"
        },
        {
          "indexed": false,
          "internalType": "address",
          "name": "to",
          "type": "address"
        },
        {
          "indexed": false,
          "internalType": "uint256",
          "name": "amount",
          "type": "uint256"
        }
      ],
      "name": "Sent",
      "type": "event"
    },
    {
      "inputs": [],
      "name": "minter",
      "outputs": [
        {
          "internalType": "address",
          "name": "",
          "type": "address"
        }
      ],
      "stateMutability": "view",
      "type": "function",
      "constant": true
    },
    {
      "inputs": [
        {
          "internalType": "address",
          "name": "receiver",
          "type": "address"
        },
        {
          "internalType": "uint256",
          "name": "amount",
          "type": "uint256"
        }
      ],
      "name": "mint",
      "outputs": [],
      "stateMutability": "nonpayable",
      "type": "function"
    },
    {
      "inputs": [
        {
          "internalType": "address",
          "name": "receiver",
          "type": "address"
        },
        {
          "internalType": "uint256",
          "name": "amount",
          "type": "uint256"
        }
      ],
      "name": "send",
      "outputs": [],
      "stateMutability": "nonpayable",
      "type": "function"
    },
    {
      "inputs": [
        {
          "internalType": "address",
          "name": "addr",
          "type": "address"
        }
      ],
      "name": "getBalance",
      "outputs": [
        {
          "internalType": "uint256",
          "name": "",
          "type": "uint256"
        }
      ],
      "stateMutability": "view",
      "type": "function",
      "constant": true
    }
  ],
  "bytecode": "0x608060405234801561001057600080fd5b50336000806101000a81548173ffffffffffffffffffffffffffffffffffffffff021916908373ffffffffffffffffffffffffffffffffffffffff16021790555061064f806100606000396000f3fe608060405234801561001057600080fd5b506004361061004c5760003560e01c8063075461721461005157806340c10f191461006f578063d0679d341461008b578063f8b2cb4f146100a7575b600080fd5b6100596100d7565b604051610066919061045b565b60405180910390f35b610089600480360381019061008491906103fd565b6100fb565b005b6100a560048036038101906100a091906103fd565b6101ad565b005b6100c160048036038101906100bc91906103d0565b61035d565b6040516100ce91906104ad565b60405180910390f35b60008054906101000a900473ffffffffffffffffffffffffffffffffffffffff1681565b60008054906101000a900473ffffffffffffffffffffffffffffffffffffffff1673ffffffffffffffffffffffffffffffffffffffff163373ffffffffffffffffffffffffffffffffffffffff161461015357600080fd5b80600160008473ffffffffffffffffffffffffffffffffffffffff1673ffffffffffffffffffffffffffffffffffffffff16815260200190815260200160002060008282546101a291906104f1565b925050819055505050565b600160003373ffffffffffffffffffffffffffffffffffffffff1673ffffffffffffffffffffffffffffffffffffffff168152602001908152602001600020548111156102725780600160003373ffffffffffffffffffffffffffffffffffffffff1673ffffffffffffffffffffffffffffffffffffffff168152602001908152602001600020546040517f3f035e980000000000000000000000000000000000000000000000000000000081526004016102699291906104c8565b60405180910390fd5b80600160003373ffffffffffffffffffffffffffffffffffffffff1673ffffffffffffffffffffffffffffffffffffffff16815260200190815260200160002060008282546102c19190610547565b9250508190555080600160008473ffffffffffffffffffffffffffffffffffffffff1673ffffffffffffffffffffffffffffffffffffffff168152602001908152602001600020600082825461031791906104f1565b925050819055507f3990db2d31862302a685e8086b5755072a6e2b5b780af1ee81ece35ee3cd334533838360405161035193929190610476565b60405180910390a15050565b6000600160008373ffffffffffffffffffffffffffffffffffffffff1673ffffffffffffffffffffffffffffffffffffffff168152602001908152602001600020549050919050565b6000813590506103b5816105eb565b92915050565b6000813590506103ca81610602565b92915050565b6000602082840312156103e6576103e56105e6565b5b60006103f4848285016103a6565b91505092915050565b60008060408385031215610414576104136105e6565b5b6000610422858286016103a6565b9250506020610433858286016103bb565b9150509250929050565b6104468161057b565b82525050565b610455816105ad565b82525050565b6000602082019050610470600083018461043d565b92915050565b600060608201905061048b600083018661043d565b610498602083018561043d565b6104a5604083018461044c565b949350505050565b60006020820190506104c2600083018461044c565b92915050565b60006040820190506104dd600083018561044c565b6104ea602083018461044c565b9392505050565b60006104fc826105ad565b9150610507836105ad565b9250827fffffffffffffffffffffffffffffffffffffffffffffffffffffffffffffffff0382111561053c5761053b6105b7565b5b828201905092915050565b6000610552826105ad565b915061055d836105ad565b9250828210156105705761056f6105b7565b5b828203905092915050565b60006105868261058d565b9050919050565b600073ffffffffffffffffffffffffffffffffffffffff82169050919050565b6000819050919050565b7f4e487b7100000000000000000000000000000000000000000000000000000000600052601160045260246000fd5b600080fd5b6105f48161057b565b81146105ff57600080fd5b50565b61060b816105ad565b811461061657600080fd5b5056fea2646970667358221220d0628c8ce79e07deaa7d591badc7651ced1c55b678d49f4d913a870ab4cb0b7064736f6c63430008050033",
  "immutableReferences": {},
  "source": "// SPDX-License-Identifier: MIT\npragma solidity ^0.8.5;\n\ncontract Coin {\n  address public minter;\n  mapping( address => uint ) balances;\n\n  event Sent(address from, address to, uint amount);\n  \n  constructor() {\n    minter = msg.sender;\n  }\n\n  function mint(address receiver, uint amount) public {\n    require(msg.sender == minter);\n    balances[receiver] += amount;\n  }\n\n  error InsufficientBlance(uint requested, uint available);\n\n  function send(address receiver, uint amount) public {\n    if( amount > balances[msg.sender]) {\n      revert InsufficientBlance({\n        requested: amount,\n        available: balances[msg.sender]\n      });\n    }\n    balances[msg.sender] -= amount;\n    balances[receiver] += amount;\n    emit Sent(msg.sender, receiver, amount);  \n  } \n\n  function getBalance(address addr) public view returns (uint) {\n    return balances[addr];\n  }\n}\n",
  "sourcePath": "D:/Desktop/Workspace/Projects/solidity/METoken/contracts/Coin.sol",
  "compiler": {
    "name": "solc",
    "version": "0.8.5+commit.a4f2e591.Emscripten.clang"
  },
  "schemaVersion": "3.4.1",
  "updatedAt": "2021-07-02T06:00:08.231Z",
  "networkType": "ethereum",
  "devdoc": {
    "kind": "dev",
    "methods": {},
    "version": 1
  },
  "userdoc": {
    "kind": "user",
    "methods": {},
    "version": 1
  }
}