{
  "contractName": "DeedRepository",
  "abi": [
    {
      "inputs": [
        {
          "internalType": "string",
          "name": "_name",
          "type": "string"
        },
        {
          "internalType": "string",
          "name": "_symbol",
          "type": "string"
        }
      ],
      "stateMutability": "nonpayable",
      "type": "constructor"
    },
    {
      "anonymous": false,
      "inputs": [
        {
          "indexed": true,
          "internalType": "address",
          "name": "owner",
          "type": "address"
        },
        {
          "indexed": true,
          "internalType": "address",
          "name": "approved",
          "type": "address"
        },
        {
          "indexed": true,
          "internalType": "uint256",
          "name": "tokenId",
          "type": "uint256"
        }
      ],
      "name": "Approval",
      "type": "event"
    },
    {
      "anonymous": false,
      "inputs": [
        {
          "indexed": true,
          "internalType": "address",
          "name": "owner",
          "type": "address"
        },
        {
          "indexed": true,
          "internalType": "address",
          "name": "operator",
          "type": "address"
        },
        {
          "indexed": false,
          "internalType": "bool",
          "name": "approved",
          "type": "bool"
        }
      ],
      "name": "ApprovalForAll",
      "type": "event"
    },
    {
      "anonymous": false,
      "inputs": [
        {
          "indexed": false,
          "internalType": "address",
          "name": "_by",
          "type": "address"
        },
        {
          "indexed": false,
          "internalType": "uint256",
          "name": "_tokenId",
          "type": "uint256"
        }
      ],
      "name": "DeedRegistered",
      "type": "event"
    },
    {
      "anonymous": false,
      "inputs": [
        {
          "indexed": true,
          "internalType": "address",
          "name": "from",
          "type": "address"
        },
        {
          "indexed": true,
          "internalType": "address",
          "name": "to",
          "type": "address"
        },
        {
          "indexed": true,
          "internalType": "uint256",
          "name": "tokenId",
          "type": "uint256"
        }
      ],
      "name": "Transfer",
      "type": "event"
    },
    {
      "inputs": [
        {
          "internalType": "address",
          "name": "to",
          "type": "address"
        },
        {
          "internalType": "uint256",
          "name": "tokenId",
          "type": "uint256"
        }
      ],
      "name": "approve",
      "outputs": [],
      "stateMutability": "nonpayable",
      "type": "function"
    },
    {
      "inputs": [
        {
          "internalType": "address",
          "name": "owner",
          "type": "address"
        }
      ],
      "name": "balanceOf",
      "outputs": [
        {
          "internalType": "uint256",
          "name": "",
          "type": "uint256"
        }
      ],
      "stateMutability": "view",
      "type": "function"
    },
    {
      "inputs": [
        {
          "internalType": "uint256",
          "name": "tokenId",
          "type": "uint256"
        }
      ],
      "name": "getApproved",
      "outputs": [
        {
          "internalType": "address",
          "name": "",
          "type": "address"
        }
      ],
      "stateMutability": "view",
      "type": "function"
    },
    {
      "inputs": [
        {
          "internalType": "address",
          "name": "owner",
          "type": "address"
        },
        {
          "internalType": "address",
          "name": "operator",
          "type": "address"
        }
      ],
      "name": "isApprovedForAll",
      "outputs": [
        {
          "internalType": "bool",
          "name": "",
          "type": "bool"
        }
      ],
      "stateMutability": "view",
      "type": "function"
    },
    {
      "inputs": [],
      "name": "name",
      "outputs": [
        {
          "internalType": "string",
          "name": "",
          "type": "string"
        }
      ],
      "stateMutability": "view",
      "type": "function"
    },
    {
      "inputs": [
        {
          "internalType": "uint256",
          "name": "tokenId",
          "type": "uint256"
        }
      ],
      "name": "ownerOf",
      "outputs": [
        {
          "internalType": "address",
          "name": "",
          "type": "address"
        }
      ],
      "stateMutability": "view",
      "type": "function"
    },
    {
      "inputs": [
        {
          "internalType": "address",
          "name": "from",
          "type": "address"
        },
        {
          "internalType": "address",
          "name": "to",
          "type": "address"
        },
        {
          "internalType": "uint256",
          "name": "tokenId",
          "type": "uint256"
        }
      ],
      "name": "safeTransferFrom",
      "outputs": [],
      "stateMutability": "nonpayable",
      "type": "function"
    },
    {
      "inputs": [
        {
          "internalType": "address",
          "name": "from",
          "type": "address"
        },
        {
          "internalType": "address",
          "name": "to",
          "type": "address"
        },
        {
          "internalType": "uint256",
          "name": "tokenId",
          "type": "uint256"
        },
        {
          "internalType": "bytes",
          "name": "_data",
          "type": "bytes"
        }
      ],
      "name": "safeTransferFrom",
      "outputs": [],
      "stateMutability": "nonpayable",
      "type": "function"
    },
    {
      "inputs": [
        {
          "internalType": "address",
          "name": "operator",
          "type": "address"
        },
        {
          "internalType": "bool",
          "name": "approved",
          "type": "bool"
        }
      ],
      "name": "setApprovalForAll",
      "outputs": [],
      "stateMutability": "nonpayable",
      "type": "function"
    },
    {
      "inputs": [
        {
          "internalType": "bytes4",
          "name": "interfaceId",
          "type": "bytes4"
        }
      ],
      "name": "supportsInterface",
      "outputs": [
        {
          "internalType": "bool",
          "name": "",
          "type": "bool"
        }
      ],
      "stateMutability": "view",
      "type": "function"
    },
    {
      "inputs": [],
      "name": "symbol",
      "outputs": [
        {
          "internalType": "string",
          "name": "",
          "type": "string"
        }
      ],
      "stateMutability": "view",
      "type": "function"
    },
    {
      "inputs": [
        {
          "internalType": "uint256",
          "name": "tokenId",
          "type": "uint256"
        }
      ],
      "name": "tokenURI",
      "outputs": [
        {
          "internalType": "string",
          "name": "",
          "type": "string"
        }
      ],
      "stateMutability": "view",
      "type": "function"
    },
    {
      "inputs": [
        {
          "internalType": "address",
          "name": "from",
          "type": "address"
        },
        {
          "internalType": "address",
          "name": "to",
          "type": "address"
        },
        {
          "internalType": "uint256",
          "name": "tokenId",
          "type": "uint256"
        }
      ],
      "name": "transferFrom",
      "outputs": [],
      "stateMutability": "nonpayable",
      "type": "function"
    },
    {
      "inputs": [
        {
          "internalType": "uint256",
          "name": "_tokenId",
          "type": "uint256"
        }
      ],
      "name": "registerDeed",
      "outputs": [],
      "stateMutability": "nonpayable",
      "type": "function"
    }
  ],
  "bytecode": "0x60806040523480156200001157600080fd5b5060405162002afa38038062002afa8339818101604052810190620000379190620001a3565b818181600090805190602001906200005192919062000075565b5080600190805190602001906200006a92919062000075565b5050505050620003ac565b8280546200008390620002bd565b90600052602060002090601f016020900481019282620000a75760008555620000f3565b82601f10620000c257805160ff1916838001178555620000f3565b82800160010185558215620000f3579182015b82811115620000f2578251825591602001919060010190620000d5565b5b50905062000102919062000106565b5090565b5b808211156200012157600081600090555060010162000107565b5090565b60006200013c620001368462000251565b62000228565b9050828152602081018484840111156200015b576200015a6200038c565b5b6200016884828562000287565b509392505050565b600082601f83011262000188576200018762000387565b5b81516200019a84826020860162000125565b91505092915050565b60008060408385031215620001bd57620001bc62000396565b5b600083015167ffffffffffffffff811115620001de57620001dd62000391565b5b620001ec8582860162000170565b925050602083015167ffffffffffffffff81111562000210576200020f62000391565b5b6200021e8582860162000170565b9150509250929050565b60006200023462000247565b9050620002428282620002f3565b919050565b6000604051905090565b600067ffffffffffffffff8211156200026f576200026e62000358565b5b6200027a826200039b565b9050602081019050919050565b60005b83811015620002a75780820151818401526020810190506200028a565b83811115620002b7576000848401525b50505050565b60006002820490506001821680620002d657607f821691505b60208210811415620002ed57620002ec62000329565b5b50919050565b620002fe826200039b565b810181811067ffffffffffffffff8211171562000320576200031f62000358565b5b80604052505050565b7f4e487b7100000000000000000000000000000000000000000000000000000000600052602260045260246000fd5b7f4e487b7100000000000000000000000000000000000000000000000000000000600052604160045260246000fd5b600080fd5b600080fd5b600080fd5b600080fd5b6000601f19601f8301169050919050565b61273e80620003bc6000396000f3fe608060405234801561001057600080fd5b50600436106100ea5760003560e01c80636352211e1161008c578063a22cb46511610066578063a22cb4651461025b578063b88d4fde14610277578063c87b56dd14610293578063e985e9c5146102c3576100ea565b80636352211e146101dd57806370a082311461020d57806395d89b411461023d576100ea565b8063081812fc116100c8578063081812fc14610159578063095ea7b31461018957806323b872dd146101a557806342842e0e146101c1576100ea565b806301ffc9a7146100ef57806305a72ccd1461011f57806306fdde031461013b575b600080fd5b610109600480360381019061010491906118c8565b6102f3565b6040516101169190611cbd565b60405180910390f35b61013960048036038101906101349190611922565b6103d5565b005b61014361041b565b6040516101509190611cd8565b60405180910390f35b610173600480360381019061016e9190611922565b6104ad565b6040516101809190611c2d565b60405180910390f35b6101a3600480360381019061019e9190611888565b610532565b005b6101bf60048036038101906101ba9190611772565b61064a565b005b6101db60048036038101906101d69190611772565b6106aa565b005b6101f760048036038101906101f29190611922565b6106ca565b6040516102049190611c2d565b60405180910390f35b61022760048036038101906102229190611705565b61077c565b6040516102349190611eba565b60405180910390f35b610245610834565b6040516102529190611cd8565b60405180910390f35b61027560048036038101906102709190611848565b6108c6565b005b610291600480360381019061028c91906117c5565b610a47565b005b6102ad60048036038101906102a89190611922565b610aa9565b6040516102ba9190611cd8565b60405180910390f35b6102dd60048036038101906102d89190611732565b610b50565b6040516102ea9190611cbd565b60405180910390f35b60007f80ac58cd000000000000000000000000000000000000000000000000000000007bffffffffffffffffffffffffffffffffffffffffffffffffffffffff1916827bffffffffffffffffffffffffffffffffffffffffffffffffffffffff191614806103be57507f5b5e139f000000000000000000000000000000000000000000000000000000007bffffffffffffffffffffffffffffffffffffffffffffffffffffffff1916827bffffffffffffffffffffffffffffffffffffffffffffffffffffffff1916145b806103ce57506103cd82610be4565b5b9050919050565b6103df3382610c4e565b7f32cc5b866d6a5990a7f987020b639157969cb963b9beb2cdf41df22ab152df353382604051610410929190611c94565b60405180910390a150565b60606000805461042a906120df565b80601f0160208091040260200160405190810160405280929190818152602001828054610456906120df565b80156104a35780601f10610478576101008083540402835291602001916104a3565b820191906000526020600020905b81548152906001019060200180831161048657829003601f168201915b5050505050905090565b60006104b882610e1c565b6104f7576040517f08c379a00000000000000000000000000000000000000000000000000000000081526004016104ee90611e1a565b60405180910390fd5b6004600083815260200190815260200160002060009054906101000a900473ffffffffffffffffffffffffffffffffffffffff169050919050565b600061053d826106ca565b90508073ffffffffffffffffffffffffffffffffffffffff168373ffffffffffffffffffffffffffffffffffffffff1614156105ae576040517f08c379a00000000000000000000000000000000000000000000000000000000081526004016105a590611e7a565b60405180910390fd5b8073ffffffffffffffffffffffffffffffffffffffff166105cd610e88565b73ffffffffffffffffffffffffffffffffffffffff1614806105fc57506105fb816105f6610e88565b610b50565b5b61063b576040517f08c379a000000000000000000000000000000000000000000000000000000000815260040161063290611d9a565b60405180910390fd5b6106458383610e90565b505050565b61065b610655610e88565b82610f49565b61069a576040517f08c379a000000000000000000000000000000000000000000000000000000000815260040161069190611e9a565b60405180910390fd5b6106a5838383611027565b505050565b6106c583838360405180602001604052806000815250610a47565b505050565b6000806002600084815260200190815260200160002060009054906101000a900473ffffffffffffffffffffffffffffffffffffffff169050600073ffffffffffffffffffffffffffffffffffffffff168173ffffffffffffffffffffffffffffffffffffffff161415610773576040517f08c379a000000000000000000000000000000000000000000000000000000000815260040161076a90611dda565b60405180910390fd5b80915050919050565b60008073ffffffffffffffffffffffffffffffffffffffff168273ffffffffffffffffffffffffffffffffffffffff1614156107ed576040517f08c379a00000000000000000000000000000000000000000000000000000000081526004016107e490611dba565b60405180910390fd5b600360008373ffffffffffffffffffffffffffffffffffffffff1673ffffffffffffffffffffffffffffffffffffffff168152602001908152602001600020549050919050565b606060018054610843906120df565b80601f016020809104026020016040519081016040528092919081815260200182805461086f906120df565b80156108bc5780601f10610891576101008083540402835291602001916108bc565b820191906000526020600020905b81548152906001019060200180831161089f57829003601f168201915b5050505050905090565b6108ce610e88565b73ffffffffffffffffffffffffffffffffffffffff168273ffffffffffffffffffffffffffffffffffffffff16141561093c576040517f08c379a000000000000000000000000000000000000000000000000000000000815260040161093390611d5a565b60405180910390fd5b8060056000610949610e88565b73ffffffffffffffffffffffffffffffffffffffff1673ffffffffffffffffffffffffffffffffffffffff16815260200190815260200160002060008473ffffffffffffffffffffffffffffffffffffffff1673ffffffffffffffffffffffffffffffffffffffff16815260200190815260200160002060006101000a81548160ff0219169083151502179055508173ffffffffffffffffffffffffffffffffffffffff166109f6610e88565b73ffffffffffffffffffffffffffffffffffffffff167f17307eab39ab6107e8899845ad3d59bd9653f200f220920489ca2b5937696c3183604051610a3b9190611cbd565b60405180910390a35050565b610a58610a52610e88565b83610f49565b610a97576040517f08c379a0000000000000000000000000000000000000000000000000000000008152600401610a8e90611e9a565b60405180910390fd5b610aa384848484611283565b50505050565b6060610ab482610e1c565b610af3576040517f08c379a0000000000000000000000000000000000000000000000000000000008152600401610aea90611e5a565b60405180910390fd5b6000610afd6112df565b90506000815111610b1d5760405180602001604052806000815250610b48565b80610b278461131c565b604051602001610b38929190611c09565b6040516020818303038152906040525b915050919050565b6000600560008473ffffffffffffffffffffffffffffffffffffffff1673ffffffffffffffffffffffffffffffffffffffff16815260200190815260200160002060008373ffffffffffffffffffffffffffffffffffffffff1673ffffffffffffffffffffffffffffffffffffffff16815260200190815260200160002060009054906101000a900460ff16905092915050565b60007f01ffc9a7000000000000000000000000000000000000000000000000000000007bffffffffffffffffffffffffffffffffffffffffffffffffffffffff1916827bffffffffffffffffffffffffffffffffffffffffffffffffffffffff1916149050919050565b600073ffffffffffffffffffffffffffffffffffffffff168273ffffffffffffffffffffffffffffffffffffffff161415610cbe576040517f08c379a0000000000000000000000000000000000000000000000000000000008152600401610cb590611dfa565b60405180910390fd5b610cc781610e1c565b15610d07576040517f08c379a0000000000000000000000000000000000000000000000000000000008152600401610cfe90611d1a565b60405180910390fd5b610d136000838361147d565b6001600360008473ffffffffffffffffffffffffffffffffffffffff1673ffffffffffffffffffffffffffffffffffffffff1681526020019081526020016000206000828254610d639190611f6e565b92505081905550816002600083815260200190815260200160002060006101000a81548173ffffffffffffffffffffffffffffffffffffffff021916908373ffffffffffffffffffffffffffffffffffffffff160217905550808273ffffffffffffffffffffffffffffffffffffffff16600073ffffffffffffffffffffffffffffffffffffffff167fddf252ad1be2c89b69c2b068fc378daa952ba7f163c4a11628f55a4df523b3ef60405160405180910390a45050565b60008073ffffffffffffffffffffffffffffffffffffffff166002600084815260200190815260200160002060009054906101000a900473ffffffffffffffffffffffffffffffffffffffff1673ffffffffffffffffffffffffffffffffffffffff1614159050919050565b600033905090565b816004600083815260200190815260200160002060006101000a81548173ffffffffffffffffffffffffffffffffffffffff021916908373ffffffffffffffffffffffffffffffffffffffff160217905550808273ffffffffffffffffffffffffffffffffffffffff16610f03836106ca565b73ffffffffffffffffffffffffffffffffffffffff167f8c5be1e5ebec7d5bd14f71427d1e84f3dd0314c0f7b2291e5b200ac8c7c3b92560405160405180910390a45050565b6000610f5482610e1c565b610f93576040517f08c379a0000000000000000000000000000000000000000000000000000000008152600401610f8a90611d7a565b60405180910390fd5b6000610f9e836106ca565b90508073ffffffffffffffffffffffffffffffffffffffff168473ffffffffffffffffffffffffffffffffffffffff16148061100d57508373ffffffffffffffffffffffffffffffffffffffff16610ff5846104ad565b73ffffffffffffffffffffffffffffffffffffffff16145b8061101e575061101d8185610b50565b5b91505092915050565b8273ffffffffffffffffffffffffffffffffffffffff16611047826106ca565b73ffffffffffffffffffffffffffffffffffffffff161461109d576040517f08c379a000000000000000000000000000000000000000000000000000000000815260040161109490611e3a565b60405180910390fd5b600073ffffffffffffffffffffffffffffffffffffffff168273ffffffffffffffffffffffffffffffffffffffff16141561110d576040517f08c379a000000000000000000000000000000000000000000000000000000000815260040161110490611d3a565b60405180910390fd5b61111883838361147d565b611123600082610e90565b6001600360008573ffffffffffffffffffffffffffffffffffffffff1673ffffffffffffffffffffffffffffffffffffffff16815260200190815260200160002060008282546111739190611ff5565b925050819055506001600360008473ffffffffffffffffffffffffffffffffffffffff1673ffffffffffffffffffffffffffffffffffffffff16815260200190815260200160002060008282546111ca9190611f6e565b92505081905550816002600083815260200190815260200160002060006101000a81548173ffffffffffffffffffffffffffffffffffffffff021916908373ffffffffffffffffffffffffffffffffffffffff160217905550808273ffffffffffffffffffffffffffffffffffffffff168473ffffffffffffffffffffffffffffffffffffffff167fddf252ad1be2c89b69c2b068fc378daa952ba7f163c4a11628f55a4df523b3ef60405160405180910390a4505050565b61128e848484611027565b61129a84848484611482565b6112d9576040517f08c379a00000000000000000000000000000000000000000000000000000000081526004016112d090611cfa565b60405180910390fd5b50505050565b60606040518060400160405280601781526020017f68747470733a2f2f6c6f63616c686f73743a323031372f000000000000000000815250905090565b60606000821415611364576040518060400160405280600181526020017f30000000000000000000000000000000000000000000000000000000000000008152509050611478565b600082905060005b6000821461139657808061137f90612142565b915050600a8261138f9190611fc4565b915061136c565b60008167ffffffffffffffff8111156113b2576113b1612278565b5b6040519080825280601f01601f1916602001820160405280156113e45781602001600182028036833780820191505090505b5090505b60008514611471576001826113fd9190611ff5565b9150600a8561140c919061218b565b60306114189190611f6e565b60f81b81838151811061142e5761142d612249565b5b60200101907effffffffffffffffffffffffffffffffffffffffffffffffffffffffffffff1916908160001a905350600a8561146a9190611fc4565b94506113e8565b8093505050505b919050565b505050565b60006114a38473ffffffffffffffffffffffffffffffffffffffff16611619565b1561160c578373ffffffffffffffffffffffffffffffffffffffff1663150b7a026114cc610e88565b8786866040518563ffffffff1660e01b81526004016114ee9493929190611c48565b602060405180830381600087803b15801561150857600080fd5b505af192505050801561153957506040513d601f19601f8201168201806040525081019061153691906118f5565b60015b6115bc573d8060008114611569576040519150601f19603f3d011682016040523d82523d6000602084013e61156e565b606091505b506000815114156115b4576040517f08c379a00000000000000000000000000000000000000000000000000000000081526004016115ab90611cfa565b60405180910390fd5b805181602001fd5b63150b7a0260e01b7bffffffffffffffffffffffffffffffffffffffffffffffffffffffff1916817bffffffffffffffffffffffffffffffffffffffffffffffffffffffff191614915050611611565b600190505b949350505050565b600080823b905060008111915050919050565b600061163f61163a84611efa565b611ed5565b90508281526020810184848401111561165b5761165a6122ac565b5b61166684828561209d565b509392505050565b60008135905061167d816126ac565b92915050565b600081359050611692816126c3565b92915050565b6000813590506116a7816126da565b92915050565b6000815190506116bc816126da565b92915050565b600082601f8301126116d7576116d66122a7565b5b81356116e784826020860161162c565b91505092915050565b6000813590506116ff816126f1565b92915050565b60006020828403121561171b5761171a6122b6565b5b60006117298482850161166e565b91505092915050565b60008060408385031215611749576117486122b6565b5b60006117578582860161166e565b92505060206117688582860161166e565b9150509250929050565b60008060006060848603121561178b5761178a6122b6565b5b60006117998682870161166e565b93505060206117aa8682870161166e565b92505060406117bb868287016116f0565b9150509250925092565b600080600080608085870312156117df576117de6122b6565b5b60006117ed8782880161166e565b94505060206117fe8782880161166e565b935050604061180f878288016116f0565b925050606085013567ffffffffffffffff8111156118305761182f6122b1565b5b61183c878288016116c2565b91505092959194509250565b6000806040838503121561185f5761185e6122b6565b5b600061186d8582860161166e565b925050602061187e85828601611683565b9150509250929050565b6000806040838503121561189f5761189e6122b6565b5b60006118ad8582860161166e565b92505060206118be858286016116f0565b9150509250929050565b6000602082840312156118de576118dd6122b6565b5b60006118ec84828501611698565b91505092915050565b60006020828403121561190b5761190a6122b6565b5b6000611919848285016116ad565b91505092915050565b600060208284031215611938576119376122b6565b5b6000611946848285016116f0565b91505092915050565b61195881612029565b82525050565b6119678161203b565b82525050565b600061197882611f2b565b6119828185611f41565b93506119928185602086016120ac565b61199b816122bb565b840191505092915050565b60006119b182611f36565b6119bb8185611f52565b93506119cb8185602086016120ac565b6119d4816122bb565b840191505092915050565b60006119ea82611f36565b6119f48185611f63565b9350611a048185602086016120ac565b80840191505092915050565b6000611a1d603283611f52565b9150611a28826122cc565b604082019050919050565b6000611a40601c83611f52565b9150611a4b8261231b565b602082019050919050565b6000611a63602483611f52565b9150611a6e82612344565b604082019050919050565b6000611a86601983611f52565b9150611a9182612393565b602082019050919050565b6000611aa9602c83611f52565b9150611ab4826123bc565b604082019050919050565b6000611acc603883611f52565b9150611ad78261240b565b604082019050919050565b6000611aef602a83611f52565b9150611afa8261245a565b604082019050919050565b6000611b12602983611f52565b9150611b1d826124a9565b604082019050919050565b6000611b35602083611f52565b9150611b40826124f8565b602082019050919050565b6000611b58602c83611f52565b9150611b6382612521565b604082019050919050565b6000611b7b602983611f52565b9150611b8682612570565b604082019050919050565b6000611b9e602f83611f52565b9150611ba9826125bf565b604082019050919050565b6000611bc1602183611f52565b9150611bcc8261260e565b604082019050919050565b6000611be4603183611f52565b9150611bef8261265d565b604082019050919050565b611c0381612093565b82525050565b6000611c1582856119df565b9150611c2182846119df565b91508190509392505050565b6000602082019050611c42600083018461194f565b92915050565b6000608082019050611c5d600083018761194f565b611c6a602083018661194f565b611c776040830185611bfa565b8181036060830152611c89818461196d565b905095945050505050565b6000604082019050611ca9600083018561194f565b611cb66020830184611bfa565b9392505050565b6000602082019050611cd2600083018461195e565b92915050565b60006020820190508181036000830152611cf281846119a6565b905092915050565b60006020820190508181036000830152611d1381611a10565b9050919050565b60006020820190508181036000830152611d3381611a33565b9050919050565b60006020820190508181036000830152611d5381611a56565b9050919050565b60006020820190508181036000830152611d7381611a79565b9050919050565b60006020820190508181036000830152611d9381611a9c565b9050919050565b60006020820190508181036000830152611db381611abf565b9050919050565b60006020820190508181036000830152611dd381611ae2565b9050919050565b60006020820190508181036000830152611df381611b05565b9050919050565b60006020820190508181036000830152611e1381611b28565b9050919050565b60006020820190508181036000830152611e3381611b4b565b9050919050565b60006020820190508181036000830152611e5381611b6e565b9050919050565b60006020820190508181036000830152611e7381611b91565b9050919050565b60006020820190508181036000830152611e9381611bb4565b9050919050565b60006020820190508181036000830152611eb381611bd7565b9050919050565b6000602082019050611ecf6000830184611bfa565b92915050565b6000611edf611ef0565b9050611eeb8282612111565b919050565b6000604051905090565b600067ffffffffffffffff821115611f1557611f14612278565b5b611f1e826122bb565b9050602081019050919050565b600081519050919050565b600081519050919050565b600082825260208201905092915050565b600082825260208201905092915050565b600081905092915050565b6000611f7982612093565b9150611f8483612093565b9250827fffffffffffffffffffffffffffffffffffffffffffffffffffffffffffffffff03821115611fb957611fb86121bc565b5b828201905092915050565b6000611fcf82612093565b9150611fda83612093565b925082611fea57611fe96121eb565b5b828204905092915050565b600061200082612093565b915061200b83612093565b92508282101561201e5761201d6121bc565b5b828203905092915050565b600061203482612073565b9050919050565b60008115159050919050565b60007fffffffff0000000000000000000000000000000000000000000000000000000082169050919050565b600073ffffffffffffffffffffffffffffffffffffffff82169050919050565b6000819050919050565b82818337600083830152505050565b60005b838110156120ca5780820151818401526020810190506120af565b838111156120d9576000848401525b50505050565b600060028204905060018216806120f757607f821691505b6020821081141561210b5761210a61221a565b5b50919050565b61211a826122bb565b810181811067ffffffffffffffff8211171561213957612138612278565b5b80604052505050565b600061214d82612093565b91507fffffffffffffffffffffffffffffffffffffffffffffffffffffffffffffffff8214156121805761217f6121bc565b5b600182019050919050565b600061219682612093565b91506121a183612093565b9250826121b1576121b06121eb565b5b828206905092915050565b7f4e487b7100000000000000000000000000000000000000000000000000000000600052601160045260246000fd5b7f4e487b7100000000000000000000000000000000000000000000000000000000600052601260045260246000fd5b7f4e487b7100000000000000000000000000000000000000000000000000000000600052602260045260246000fd5b7f4e487b7100000000000000000000000000000000000000000000000000000000600052603260045260246000fd5b7f4e487b7100000000000000000000000000000000000000000000000000000000600052604160045260246000fd5b600080fd5b600080fd5b600080fd5b600080fd5b6000601f19601f8301169050919050565b7f4552433732313a207472616e7366657220746f206e6f6e20455243373231526560008201527f63656976657220696d706c656d656e7465720000000000000000000000000000602082015250565b7f4552433732313a20746f6b656e20616c7265616479206d696e74656400000000600082015250565b7f4552433732313a207472616e7366657220746f20746865207a65726f2061646460008201527f7265737300000000000000000000000000000000000000000000000000000000602082015250565b7f4552433732313a20617070726f766520746f2063616c6c657200000000000000600082015250565b7f4552433732313a206f70657261746f7220717565727920666f72206e6f6e657860008201527f697374656e7420746f6b656e0000000000000000000000000000000000000000602082015250565b7f4552433732313a20617070726f76652063616c6c6572206973206e6f74206f7760008201527f6e6572206e6f7220617070726f76656420666f7220616c6c0000000000000000602082015250565b7f4552433732313a2062616c616e636520717565727920666f7220746865207a6560008201527f726f206164647265737300000000000000000000000000000000000000000000602082015250565b7f4552433732313a206f776e657220717565727920666f72206e6f6e657869737460008201527f656e7420746f6b656e0000000000000000000000000000000000000000000000602082015250565b7f4552433732313a206d696e7420746f20746865207a65726f2061646472657373600082015250565b7f4552433732313a20617070726f76656420717565727920666f72206e6f6e657860008201527f697374656e7420746f6b656e0000000000000000000000000000000000000000602082015250565b7f4552433732313a207472616e73666572206f6620746f6b656e2074686174206960008201527f73206e6f74206f776e0000000000000000000000000000000000000000000000602082015250565b7f4552433732314d657461646174613a2055524920717565727920666f72206e6f60008201527f6e6578697374656e7420746f6b656e0000000000000000000000000000000000602082015250565b7f4552433732313a20617070726f76616c20746f2063757272656e74206f776e6560008201527f7200000000000000000000000000000000000000000000000000000000000000602082015250565b7f4552433732313a207472616e736665722063616c6c6572206973206e6f74206f60008201527f776e6572206e6f7220617070726f766564000000000000000000000000000000602082015250565b6126b581612029565b81146126c057600080fd5b50565b6126cc8161203b565b81146126d757600080fd5b50565b6126e381612047565b81146126ee57600080fd5b50565b6126fa81612093565b811461270557600080fd5b5056fea26469706673582212205deab61c97db28a1b0eab628b9e38fe2c02fff7da0010793456c352b13a3dd2664736f6c63430008050033",
  "immutableReferences": {},
  "source": "// SPDX-License-Identifier: MIT\npragma solidity ^0.8.5;\n\nimport \"openzeppelin-solidity/contracts/token/ERC721/ERC721.sol\";\n\ncontract DeedRepository is ERC721 {\n    constructor(string memory _name, string memory _symbol)\n        ERC721(_name, _symbol)\n    {}\n\n    function registerDeed(uint256 _tokenId) public {\n        _mint(msg.sender, _tokenId);\n        emit DeedRegistered(msg.sender, _tokenId);\n    }\n\n    function _baseURI() internal override pure  returns (string memory) {\n        return \"https://localhost:2017/\";\n    }\n\n    /**\n     * @dev Event is triggered if deed/token is registered\n     * @param _by address of the registrar\n     * @param _tokenId uint256 represents a specific deed\n     */\n    event DeedRegistered(address _by, uint256 _tokenId);\n}\n",
  "sourcePath": "D:/Desktop/Workspace/Projects/solidity/METoken/contracts/DeedRepository.sol",
  "compiler": {
    "name": "solc",
    "version": "0.8.5+commit.a4f2e591.Emscripten.clang"
  },
  "schemaVersion": "3.4.1",
  "updatedAt": "2021-06-24T10:36:10.275Z",
  "devdoc": {
    "events": {
      "DeedRegistered(address,uint256)": {
        "details": "Event is triggered if deed/token is registered",
        "params": {
          "_by": "address of the registrar",
          "_tokenId": "uint256 represents a specific deed"
        }
      }
    },
    "kind": "dev",
    "methods": {
      "approve(address,uint256)": {
        "details": "See {IERC721-approve}."
      },
      "balanceOf(address)": {
        "details": "See {IERC721-balanceOf}."
      },
      "getApproved(uint256)": {
        "details": "See {IERC721-getApproved}."
      },
      "isApprovedForAll(address,address)": {
        "details": "See {IERC721-isApprovedForAll}."
      },
      "name()": {
        "details": "See {IERC721Metadata-name}."
      },
      "ownerOf(uint256)": {
        "details": "See {IERC721-ownerOf}."
      },
      "safeTransferFrom(address,address,uint256)": {
        "details": "See {IERC721-safeTransferFrom}."
      },
      "safeTransferFrom(address,address,uint256,bytes)": {
        "details": "See {IERC721-safeTransferFrom}."
      },
      "setApprovalForAll(address,bool)": {
        "details": "See {IERC721-setApprovalForAll}."
      },
      "supportsInterface(bytes4)": {
        "details": "See {IERC165-supportsInterface}."
      },
      "symbol()": {
        "details": "See {IERC721Metadata-symbol}."
      },
      "tokenURI(uint256)": {
        "details": "See {IERC721Metadata-tokenURI}."
      },
      "transferFrom(address,address,uint256)": {
        "details": "See {IERC721-transferFrom}."
      }
    },
    "version": 1
  },
  "userdoc": {
    "kind": "user",
    "methods": {},
    "version": 1
  }
}