{
  "contractName": "Faucet",
  "abi": [
    {
      "anonymous": false,
      "inputs": [
        {
          "indexed": true,
          "internalType": "address",
          "name": "from",
          "type": "address"
        },
        {
          "indexed": false,
          "internalType": "uint256",
          "name": "amount",
          "type": "uint256"
        }
      ],
      "name": "Deposit",
      "type": "event"
    },
    {
      "anonymous": false,
      "inputs": [
        {
          "indexed": true,
          "internalType": "address",
          "name": "to",
          "type": "address"
        },
        {
          "indexed": false,
          "internalType": "uint256",
          "name": "amount",
          "type": "uint256"
        }
      ],
      "name": "Withdrawal",
      "type": "event"
    },
    {
      "inputs": [],
      "name": "destroy",
      "outputs": [],
      "stateMutability": "nonpayable",
      "type": "function"
    },
    {
      "stateMutability": "payable",
      "type": "receive",
      "payable": true
    },
    {
      "inputs": [
        {
          "internalType": "uint256",
          "name": "withdraw_amount",
          "type": "uint256"
        }
      ],
      "name": "withdraw",
      "outputs": [],
      "stateMutability": "nonpayable",
      "type": "function"
    }
  ],
  "bytecode": "0x608060405234801561001057600080fd5b50336000806101000a81548173ffffffffffffffffffffffffffffffffffffffff021916908373ffffffffffffffffffffffffffffffffffffffff16021790555061047b806100606000396000f3fe60806040526004361061002d5760003560e01c80632e1a7d4d1461008757806383197ef0146100b057610082565b36610082573373ffffffffffffffffffffffffffffffffffffffff167fe1fffcc4923d04b559f4d29a8bfc6cda04eb5b0d3c460751c2402c5c5cc9109c346040516100789190610355565b60405180910390a2005b600080fd5b34801561009357600080fd5b506100ae60048036038101906100a99190610293565b6100c7565b005b3480156100bc57600080fd5b506100c56101b7565b005b67016345785d8a00008111156100dc57600080fd5b8047101561011f576040517f08c379a000000000000000000000000000000000000000000000000000000000815260040161011690610335565b60405180910390fd5b3373ffffffffffffffffffffffffffffffffffffffff166108fc829081150290604051600060405180830381858888f19350505050158015610165573d6000803e3d6000fd5b503373ffffffffffffffffffffffffffffffffffffffff167f7fcf532c15f0a6db0bd6d0e038bea71d30d808c7d98cb3bf7268a95bf5081b65826040516101ac9190610355565b60405180910390a250565b60008054906101000a900473ffffffffffffffffffffffffffffffffffffffff1673ffffffffffffffffffffffffffffffffffffffff163373ffffffffffffffffffffffffffffffffffffffff1614610245576040517f08c379a000000000000000000000000000000000000000000000000000000000815260040161023c90610315565b60405180910390fd5b60008054906101000a900473ffffffffffffffffffffffffffffffffffffffff1673ffffffffffffffffffffffffffffffffffffffff16ff5b60008135905061028d8161042e565b92915050565b6000602082840312156102a9576102a861038b565b5b60006102b78482850161027e565b91505092915050565b60006102cd602e83610370565b91506102d882610390565b604082019050919050565b60006102f0603583610370565b91506102fb826103df565b604082019050919050565b61030f81610381565b82525050565b6000602082019050818103600083015261032e816102c0565b9050919050565b6000602082019050818103600083015261034e816102e3565b9050919050565b600060208201905061036a6000830184610306565b92915050565b600082825260208201905092915050565b6000819050919050565b600080fd5b7f4f6e6c792074686520636f6e7472616374206f776e65722063616e2063616c6c60008201527f20746869732066756e6374696f6e000000000000000000000000000000000000602082015250565b7f496e73756666696369656e742062616c616e636520696e20666175636574206660008201527f6f72207769746864726177616c20726571756573740000000000000000000000602082015250565b61043781610381565b811461044257600080fd5b5056fea2646970667358221220ed60e2f99d2fa295fc7de0b55896079ef80c6081cfd405924f9a32cd478c552264736f6c63430008050033",
  "immutableReferences": {},
  "source": "// SPDX-License-Identifier: MIT\npragma solidity ^0.8.5;\n\ncontract Owned {\n  address payable owner;\n\n  constructor() {\n    owner = payable( msg.sender ) ;\n  }\n\n  modifier onlyOwner {\n    require(msg.sender == owner, \"Only the contract owner can call this function\");\n    _;\n  }\n}\n\ncontract Mortal is Owned {\n  function destroy() public onlyOwner {\n    selfdestruct(owner);\n  }\n}\n\ncontract Faucet is Mortal{\n    event Withdrawal(address indexed to, uint amount);\n    event Deposit(address indexed from, uint amount);\n\n    // Accept any incoming amount\n    receive() external payable {\n        emit Deposit(msg.sender, msg.value);\n    }\n\n    // Give out ether to anyone who asks\n    function withdraw(uint withdraw_amount) public {\n        // Limit withdrawal amount\n        require(withdraw_amount <= 0.1 ether);\n\n        require(\n            address(this).balance >= withdraw_amount,\n            \"Insufficient balance in faucet for withdrawal request\"\n        );\n\n        // Send the amount to the address that requested it\n        (payable ( msg.sender ) ).transfer(withdraw_amount);\n\n        emit Withdrawal(msg.sender, withdraw_amount);\n    }\n}\n",
  "sourcePath": "D:/Desktop/Workspace/Projects/solidity/METoken/contracts/Faucet.sol",
  "compiler": {
    "name": "solc",
    "version": "0.8.5+commit.a4f2e591.Emscripten.clang"
  },
  "schemaVersion": "3.4.1",
  "updatedAt": "2021-06-21T08:14:38.603Z",
  "networkType": "ethereum",
  "devdoc": {
    "kind": "dev",
    "methods": {},
    "version": 1
  },
  "userdoc": {
    "kind": "user",
    "methods": {},
    "version": 1
  }
}