{
  "contractName": "METFaucet",
  "abi": [
    {
      "inputs": [
        {
          "internalType": "contract ERC20",
          "name": "_METoken",
          "type": "address"
        },
        {
          "internalType": "address",
          "name": "_METOwner",
          "type": "address"
        }
      ],
      "stateMutability": "nonpayable",
      "type": "constructor"
    },
    {
      "stateMutability": "payable",
      "type": "fallback",
      "payable": true
    },
    {
      "inputs": [],
      "name": "METOwner",
      "outputs": [
        {
          "internalType": "address",
          "name": "",
          "type": "address"
        }
      ],
      "stateMutability": "view",
      "type": "function",
      "constant": true
    },
    {
      "inputs": [],
      "name": "METoken",
      "outputs": [
        {
          "internalType": "contract ERC20",
          "name": "",
          "type": "address"
        }
      ],
      "stateMutability": "view",
      "type": "function",
      "constant": true
    },
    {
      "stateMutability": "payable",
      "type": "receive",
      "payable": true
    },
    {
      "inputs": [
        {
          "internalType": "uint256",
          "name": "withdraw_amount",
          "type": "uint256"
        }
      ],
      "name": "withdraw",
      "outputs": [],
      "stateMutability": "nonpayable",
      "type": "function"
    }
  ],
  "bytecode": "0x608060405234801561001057600080fd5b50604051610591380380610591833981810160405281019061003291906100e4565b816000806101000a81548173ffffffffffffffffffffffffffffffffffffffff021916908373ffffffffffffffffffffffffffffffffffffffff16021790555080600160006101000a81548173ffffffffffffffffffffffffffffffffffffffff021916908373ffffffffffffffffffffffffffffffffffffffff160217905550505061019b565b6000815190506100c98161016d565b92915050565b6000815190506100de81610184565b92915050565b600080604083850312156100fb576100fa610168565b5b6000610109858286016100cf565b925050602061011a858286016100ba565b9150509250929050565b600061012f82610148565b9050919050565b600061014182610124565b9050919050565b600073ffffffffffffffffffffffffffffffffffffffff82169050919050565b600080fd5b61017681610124565b811461018157600080fd5b50565b61018d81610136565b811461019857600080fd5b50565b6103e7806101aa6000396000f3fe6080604052600436106100385760003560e01c80632e1a7d4d14610047578063ad577be314610070578063f27f0fac1461009b57610042565b3661004257600080fd5b600080fd5b34801561005357600080fd5b5061006e6004803603810190610069919061024b565b6100c6565b005b34801561007c57600080fd5b506100856101aa565b60405161009291906102f7565b60405180910390f35b3480156100a757600080fd5b506100b06101ce565b6040516100bd91906102a5565b60405180910390f35b6103e88111156100d557600080fd5b60008054906101000a900473ffffffffffffffffffffffffffffffffffffffff1673ffffffffffffffffffffffffffffffffffffffff166323b872dd600160009054906101000a900473ffffffffffffffffffffffffffffffffffffffff1633846040518463ffffffff1660e01b8152600401610154939291906102c0565b602060405180830381600087803b15801561016e57600080fd5b505af1158015610182573d6000803e3d6000fd5b505050506040513d601f19601f820116820180604052508101906101a6919061021e565b5050565b60008054906101000a900473ffffffffffffffffffffffffffffffffffffffff1681565b600160009054906101000a900473ffffffffffffffffffffffffffffffffffffffff1681565b60008151905061020381610383565b92915050565b6000813590506102188161039a565b92915050565b6000602082840312156102345761023361037e565b5b6000610242848285016101f4565b91505092915050565b6000602082840312156102615761026061037e565b5b600061026f84828501610209565b91505092915050565b61028181610312565b82525050565b6102908161035a565b82525050565b61029f81610350565b82525050565b60006020820190506102ba6000830184610278565b92915050565b60006060820190506102d56000830186610278565b6102e26020830185610278565b6102ef6040830184610296565b949350505050565b600060208201905061030c6000830184610287565b92915050565b600061031d82610330565b9050919050565b60008115159050919050565b600073ffffffffffffffffffffffffffffffffffffffff82169050919050565b6000819050919050565b60006103658261036c565b9050919050565b600061037782610330565b9050919050565b600080fd5b61038c81610324565b811461039757600080fd5b50565b6103a381610350565b81146103ae57600080fd5b5056fea26469706673582212204c414cf2ecc14116c5bf76ff27da39aae258953edddaa14f13b9ba62a96f4cc464736f6c63430008050033",
  "immutableReferences": {},
  "source": "// SPDX-License-Identifier: MIT\npragma solidity ^0.8.5 ;\n\nimport 'openzeppelin-solidity/contracts/token/ERC20/ERC20.sol';\n\ncontract METFaucet {\n  ERC20 public METoken;\n  address public METOwner;\n\n  // METFaucet constructor, provide the address of METoken contract and\n  // the owner address we will be approved to transferFrom\n  constructor(ERC20 _METoken, address _METOwner) { \n    METoken = _METoken;\n    METOwner = _METOwner;\n  }\n\n  function withdraw(uint withdraw_amount) public {\n      require(withdraw_amount <= 1000);\n      METoken.transferFrom(METOwner, msg.sender, withdraw_amount);\n  }\n\n  fallback() external payable  { revert(); }\n  receive() external payable { revert(); }\n\n}\n",
  "sourcePath": "D:/Desktop/Workspace/Projects/solidity/METoken/contracts/METFaucet.sol",
  "compiler": {
    "name": "solc",
    "version": "0.8.5+commit.a4f2e591.Emscripten.clang"
  },
  "schemaVersion": "3.4.1",
  "updatedAt": "2021-06-21T08:14:40.017Z",
  "networkType": "ethereum",
  "devdoc": {
    "kind": "dev",
    "methods": {},
    "version": 1
  },
  "userdoc": {
    "kind": "user",
    "methods": {},
    "version": 1
  }
}